{
  "address": "0xE8E145FC24570aea5ba8e2C91319dA8Da90A5e11",
  "abi": [
    {
      "inputs": [],
      "name": "ZamaProtocolUnsupported",
      "type": "error"
    },
    {
      "anonymous": false,
      "inputs": [
        {
          "indexed": true,
          "internalType": "uint256",
          "name": "leaseId",
          "type": "uint256"
        },
        {
          "indexed": true,
          "internalType": "address",
          "name": "closer",
          "type": "address"
        },
        {
          "indexed": false,
          "internalType": "uint256",
          "name": "timestamp",
          "type": "uint256"
        }
      ],
      "name": "LeaseClosed",
      "type": "event"
    },
    {
      "anonymous": false,
      "inputs": [
        {
          "indexed": true,
          "internalType": "uint256",
          "name": "leaseId",
          "type": "uint256"
        },
        {
          "indexed": true,
          "internalType": "address",
          "name": "lessor",
          "type": "address"
        },
        {
          "indexed": true,
          "internalType": "address",
          "name": "lessee",
          "type": "address"
        },
        {
          "indexed": false,
          "internalType": "uint256",
          "name": "timestamp",
          "type": "uint256"
        }
      ],
      "name": "LeaseCreated",
      "type": "event"
    },
    {
      "anonymous": false,
      "inputs": [
        {
          "indexed": true,
          "internalType": "uint256",
          "name": "leaseId",
          "type": "uint256"
        },
        {
          "indexed": false,
          "internalType": "uint256",
          "name": "timestamp",
          "type": "uint256"
        }
      ],
      "name": "LeaseExpired",
      "type": "event"
    },
    {
      "anonymous": false,
      "inputs": [
        {
          "indexed": true,
          "internalType": "uint256",
          "name": "leaseId",
          "type": "uint256"
        },
        {
          "indexed": false,
          "internalType": "uint256",
          "name": "timestamp",
          "type": "uint256"
        }
      ],
      "name": "LeaseRefundCalculated",
      "type": "event"
    },
    {
      "anonymous": false,
      "inputs": [
        {
          "indexed": true,
          "internalType": "uint256",
          "name": "leaseId",
          "type": "uint256"
        },
        {
          "indexed": true,
          "internalType": "address",
          "name": "updater",
          "type": "address"
        },
        {
          "indexed": false,
          "internalType": "uint256",
          "name": "timestamp",
          "type": "uint256"
        }
      ],
      "name": "LeaseUpdated",
      "type": "event"
    },
    {
      "anonymous": false,
      "inputs": [
        {
          "indexed": true,
          "internalType": "uint256",
          "name": "leaseId",
          "type": "uint256"
        },
        {
          "indexed": false,
          "internalType": "uint256",
          "name": "timestamp",
          "type": "uint256"
        }
      ],
      "name": "LeaseViolation",
      "type": "event"
    },
    {
      "inputs": [
        {
          "internalType": "uint256",
          "name": "leaseId",
          "type": "uint256"
        }
      ],
      "name": "checkLeaseStates",
      "outputs": [],
      "stateMutability": "nonpayable",
      "type": "function"
    },
    {
      "inputs": [
        {
          "internalType": "uint256",
          "name": "leaseId",
          "type": "uint256"
        }
      ],
      "name": "closeLease",
      "outputs": [],
      "stateMutability": "nonpayable",
      "type": "function"
    },
    {
      "inputs": [],
      "name": "confidentialProtocolId",
      "outputs": [
        {
          "internalType": "uint256",
          "name": "",
          "type": "uint256"
        }
      ],
      "stateMutability": "view",
      "type": "function"
    },
    {
      "inputs": [
        {
          "internalType": "address",
          "name": "lessee",
          "type": "address"
        },
        {
          "internalType": "externalEuint32",
          "name": "encryptedUsageCount",
          "type": "bytes32"
        },
        {
          "internalType": "externalEuint32",
          "name": "encryptedDaysLeft",
          "type": "bytes32"
        },
        {
          "internalType": "externalEuint32",
          "name": "encryptedPaymentStatus",
          "type": "bytes32"
        },
        {
          "internalType": "externalEuint32",
          "name": "encryptedAmountPaid",
          "type": "bytes32"
        },
        {
          "internalType": "bytes",
          "name": "usageCountProof",
          "type": "bytes"
        },
        {
          "internalType": "bytes",
          "name": "daysLeftProof",
          "type": "bytes"
        },
        {
          "internalType": "bytes",
          "name": "paymentStatusProof",
          "type": "bytes"
        },
        {
          "internalType": "bytes",
          "name": "amountPaidProof",
          "type": "bytes"
        }
      ],
      "name": "createLease",
      "outputs": [
        {
          "internalType": "uint256",
          "name": "",
          "type": "uint256"
        }
      ],
      "stateMutability": "nonpayable",
      "type": "function"
    },
    {
      "inputs": [
        {
          "internalType": "uint256",
          "name": "leaseId",
          "type": "uint256"
        }
      ],
      "name": "getEncryptedLeaseTerms",
      "outputs": [
        {
          "internalType": "euint32",
          "name": "encryptedUsageCount",
          "type": "bytes32"
        },
        {
          "internalType": "euint32",
          "name": "encryptedDaysLeft",
          "type": "bytes32"
        },
        {
          "internalType": "euint32",
          "name": "encryptedPaymentStatus",
          "type": "bytes32"
        },
        {
          "internalType": "euint32",
          "name": "encryptedAmountPaid",
          "type": "bytes32"
        }
      ],
      "stateMutability": "view",
      "type": "function"
    },
    {
      "inputs": [
        {
          "internalType": "uint256",
          "name": "leaseId",
          "type": "uint256"
        }
      ],
      "name": "getEncryptedStates",
      "outputs": [
        {
          "internalType": "euint32",
          "name": "encryptedExpired",
          "type": "bytes32"
        },
        {
          "internalType": "euint32",
          "name": "encryptedViolation",
          "type": "bytes32"
        },
        {
          "internalType": "euint32",
          "name": "encryptedRefund",
          "type": "bytes32"
        }
      ],
      "stateMutability": "view",
      "type": "function"
    },
    {
      "inputs": [],
      "name": "getLeaseCount",
      "outputs": [
        {
          "internalType": "uint256",
          "name": "",
          "type": "uint256"
        }
      ],
      "stateMutability": "view",
      "type": "function"
    },
    {
      "inputs": [
        {
          "internalType": "uint256",
          "name": "leaseId",
          "type": "uint256"
        }
      ],
      "name": "getLeaseInfo",
      "outputs": [
        {
          "internalType": "uint256",
          "name": "id",
          "type": "uint256"
        },
        {
          "internalType": "address",
          "name": "lessor",
          "type": "address"
        },
        {
          "internalType": "address",
          "name": "lessee",
          "type": "address"
        },
        {
          "internalType": "uint256",
          "name": "createdAt",
          "type": "uint256"
        },
        {
          "internalType": "uint256",
          "name": "updatedAt",
          "type": "uint256"
        },
        {
          "internalType": "bool",
          "name": "isActive",
          "type": "bool"
        }
      ],
      "stateMutability": "view",
      "type": "function"
    },
    {
      "inputs": [
        {
          "internalType": "address",
          "name": "lessee",
          "type": "address"
        }
      ],
      "name": "getLesseeLeases",
      "outputs": [
        {
          "internalType": "uint256[]",
          "name": "",
          "type": "uint256[]"
        }
      ],
      "stateMutability": "view",
      "type": "function"
    },
    {
      "inputs": [
        {
          "internalType": "address",
          "name": "lessor",
          "type": "address"
        }
      ],
      "name": "getLessorLeases",
      "outputs": [
        {
          "internalType": "uint256[]",
          "name": "",
          "type": "uint256[]"
        }
      ],
      "stateMutability": "view",
      "type": "function"
    },
    {
      "inputs": [],
      "name": "leaseCounter",
      "outputs": [
        {
          "internalType": "uint256",
          "name": "",
          "type": "uint256"
        }
      ],
      "stateMutability": "view",
      "type": "function"
    },
    {
      "inputs": [
        {
          "internalType": "uint256",
          "name": "",
          "type": "uint256"
        }
      ],
      "name": "leases",
      "outputs": [
        {
          "internalType": "uint256",
          "name": "id",
          "type": "uint256"
        },
        {
          "internalType": "address",
          "name": "lessor",
          "type": "address"
        },
        {
          "internalType": "address",
          "name": "lessee",
          "type": "address"
        },
        {
          "internalType": "uint256",
          "name": "createdAt",
          "type": "uint256"
        },
        {
          "internalType": "uint256",
          "name": "updatedAt",
          "type": "uint256"
        },
        {
          "internalType": "bool",
          "name": "isActive",
          "type": "bool"
        },
        {
          "internalType": "euint32",
          "name": "encryptedUsageCount",
          "type": "bytes32"
        },
        {
          "internalType": "euint32",
          "name": "encryptedDaysLeft",
          "type": "bytes32"
        },
        {
          "internalType": "euint32",
          "name": "encryptedPaymentStatus",
          "type": "bytes32"
        },
        {
          "internalType": "euint32",
          "name": "encryptedAmountPaid",
          "type": "bytes32"
        },
        {
          "internalType": "euint32",
          "name": "encryptedUsedValue",
          "type": "bytes32"
        },
        {
          "internalType": "euint32",
          "name": "encryptedExpired",
          "type": "bytes32"
        },
        {
          "internalType": "euint32",
          "name": "encryptedViolation",
          "type": "bytes32"
        },
        {
          "internalType": "euint32",
          "name": "encryptedRefund",
          "type": "bytes32"
        }
      ],
      "stateMutability": "view",
      "type": "function"
    },
    {
      "inputs": [
        {
          "internalType": "address",
          "name": "",
          "type": "address"
        },
        {
          "internalType": "uint256",
          "name": "",
          "type": "uint256"
        }
      ],
      "name": "lesseeLeases",
      "outputs": [
        {
          "internalType": "uint256",
          "name": "",
          "type": "uint256"
        }
      ],
      "stateMutability": "view",
      "type": "function"
    },
    {
      "inputs": [
        {
          "internalType": "address",
          "name": "",
          "type": "address"
        },
        {
          "internalType": "uint256",
          "name": "",
          "type": "uint256"
        }
      ],
      "name": "lessorLeases",
      "outputs": [
        {
          "internalType": "uint256",
          "name": "",
          "type": "uint256"
        }
      ],
      "stateMutability": "view",
      "type": "function"
    },
    {
      "inputs": [
        {
          "internalType": "uint256",
          "name": "leaseId",
          "type": "uint256"
        },
        {
          "internalType": "externalEuint32",
          "name": "encryptedUsageCount",
          "type": "bytes32"
        },
        {
          "internalType": "externalEuint32",
          "name": "encryptedDaysLeft",
          "type": "bytes32"
        },
        {
          "internalType": "externalEuint32",
          "name": "encryptedPaymentStatus",
          "type": "bytes32"
        },
        {
          "internalType": "bytes",
          "name": "usageCountProof",
          "type": "bytes"
        },
        {
          "internalType": "bytes",
          "name": "daysLeftProof",
          "type": "bytes"
        },
        {
          "internalType": "bytes",
          "name": "paymentStatusProof",
          "type": "bytes"
        }
      ],
      "name": "updateLease",
      "outputs": [],
      "stateMutability": "nonpayable",
      "type": "function"
    },
    {
      "inputs": [
        {
          "internalType": "uint256",
          "name": "leaseId",
          "type": "uint256"
        },
        {
          "internalType": "externalEuint32",
          "name": "encryptedUsedValue",
          "type": "bytes32"
        },
        {
          "internalType": "bytes",
          "name": "usedValueProof",
          "type": "bytes"
        }
      ],
      "name": "updateUsedValue",
      "outputs": [],
      "stateMutability": "nonpayable",
      "type": "function"
    }
  ],
  "transactionHash": "0x38eb4810647d8c7d52c274d75d5c3b0a8b8bb3126d42b9aa87c927d41c198af1",
  "args": [],
  "numDeployments": 2,
  "solcInputHash": "43781555b4d82e20d866ef8336cd5397",
  "bytecode": "0x6080604052346101255761001161015c565b50466001036100ee5761002261015c565b5061002b610129565b5f81525f60208201525f60408201525b80517f9e7b61f58c47dc699ac88507c4f5bb9f121c03808c5676a8078fe583e464970080546001600160a01b039283166001600160a01b03199182161790915560208301517f9e7b61f58c47dc699ac88507c4f5bb9f121c03808c5676a8078fe583e464970180549184169183169190911790556040928301517f9e7b61f58c47dc699ac88507c4f5bb9f121c03808c5676a8078fe583e4649702805491909316911617905551611b5d90816101d68239f35b4662aa36a70361010557610100610176565b61003b565b46617a690361011657610100610176565b6373cac13b60e01b5f5260045ffd5b5f80fd5b60405190606082016001600160401b0381118382101761014857604052565b634e487b7160e01b5f52604160045260245ffd5b610164610129565b905f82525f60208301525f6040830152565b61017e61015c565b50610187610129565b73f0ffdc93b7e186bc2f8cb3daa75d86d1930a433d81527392c920834ec8941d2c77d188936e1f7a6f49c127602082015273be0e383937d564d7ff0bc3b46c51f0bf8d5c311a60408201529056fe60806040526004361015610011575f80fd5b5f3560e01c8063030e2aba1461101d57806304368923146101e45780630aec087c14610f195780630d65336914610d7457806322858c1e14610d0257806327bc4d8214610a425780632d7287be1461092c5780638927a106146108595780638927b03014610837578063942e61a7146107b5578063aaa4d9211461076f578063b7c818ca14610360578063ca4ae71d1461030b578063d9226b6514610201578063de52f2c3146101e45763f3170e75146100c9575f80fd5b346101e05760203660031901126101e057600435801515806101d4575b6100ef90611287565b5f525f60205260c060405f2060405190610108826112d3565b8054918281526001600160a01b036001830154168060208301526001600160a01b036002840154168060408401526003840154918260608501526004850154938460808201526101a0600d60ff6005890154161515978860a085015260068101548b850152600781015460e085015260088101546101008501526009810154610120850152600a810154610140850152600b810154610160850152600c8101546101808501520154910152604051958652602086015260408501526060840152608083015260a0820152f35b506003548111156100e6565b5f80fd5b346101e0575f3660031901126101e0576020600354604051908152f35b346101e05760203660031901126101e057600435801515806102ff575b61022790611287565b5f525f602052608060405f2060405190610240826112d3565b805482526001600160a01b0360018201541660208301526001600160a01b0360028201541660408301526003810154606083015260048101548383015260ff600582015416151560a08301526006810154918260c082015260078201548060e0830152600883015491826101008201526101a0600d60098601549586610120850152600a810154610140850152600b810154610160850152600c8101546101808501520154910152604051938452602084015260408301526060820152f35b5060035481111561021e565b346101e05760403660031901126101e05761032461120f565b6001600160a01b0360243591165f52600260205260405f2080548210156101e0576020916103519161125e565b90549060031b1c604051908152f35b346101e0576101203660031901126101e05761037a61120f565b60a43567ffffffffffffffff81116101e05761039a9036906004016111e1565b9160c43567ffffffffffffffff81116101e0576103bb9036906004016111e1565b919060e43567ffffffffffffffff81116101e0576103dd9036906004016111e1565b90916101043567ffffffffffffffff81116101e0576104009036906004016111e1565b9390916001600160a01b03861697881561072a573389146106e6576003545f1981146106d257600101998a6003553690610439926113be565b6104459060243561143d565b963690610451926113be565b61045d9060443561143d565b923690610469926113be565b6104759060643561143d565b923690610481926113be565b61048d9060843561143d565b938587610498611a93565b6104a0611a93565b906104a9611a93565b898888886104b5611a93565b976040516104c2816112d3565b818152602081019a338c52604082019081526060820190428252608083019242845260a08101946001865260c0820196875260e0820197885261010082019889526101208201998a5261014082019a8b5261016082019b8c5261018082019c8d526101a082019d8e525f525f60205260405f209d8e91518255516001600160a01b031690600101906001600160a01b0316815473ffffffffffffffffffffffffffffffffffffffff1916179055516001600160a01b031660028d01906001600160a01b0316815473ffffffffffffffffffffffffffffffffffffffff19161790555160038c01555160048b015560058a019051151560ff198254169060ff1617905551600689015551600788015551600887015551600986015551600a85015551600b84015551600c8301555190600d0155855f5260016020528660405f209061060b91611404565b335f5260026020528660405f209061062291611404565b61062c3082611903565b836106373383611903565b61064091611903565b61064a3082611903565b826106553383611903565b61065e91611903565b6106683082611903565b816106733383611903565b61067c91611903565b6106863083611903565b6106903383611903565b61069991611903565b60405142815282339160207fcbef5650487c2fde4488fc755e620ec436c058b4ca91eb650d8a20ac18f66b4691a4604051908152602090f35b634e487b7160e01b5f52601160045260245ffd5b606460405162461bcd60e51b815260206004820152602060248201527f4c6573736f7220616e64206c65737365652063616e6e6f742062652073616d656044820152fd5b60405162461bcd60e51b815260206004820152601660248201527f496e76616c6964206c65737365652061646472657373000000000000000000006044820152606490fd5b346101e05760403660031901126101e05761078861120f565b6001600160a01b0360243591165f52600160205260405f2080548210156101e0576020916103519161125e565b346101e05760203660031901126101e0576001600160a01b036107d661120f565b165f52600160205260405f206040519081602082549182815201915f5260205f20905f5b8181106108215761081d8561081181870382611304565b60405191829182611225565b0390f35b82548452602090930192600192830192016107fa565b346101e0575f3660031901126101e05760206108516118d4565b604051908152f35b346101e05760203660031901126101e0576004355f525f6020526101c060405f208054906001600160a01b03600182015416906001600160a01b036002820154166003820154600483015460ff6005850154166006850154600786015490600887015492600988015494600a89015496600b8a015498600d600c8c01549b01549b60206040519e8f908152015260408d015260608c015260808b0152151560a08a015260c089015260e08801526101008701526101208601526101408501526101608401526101808301526101a0820152f35b346101e05760203660031901126101e057610a2a60043580151580610a36575b61095590611287565b805f525f602052610a2560405f2060405161096f816112d3565b815481526001600160a01b03600183015416908160208201526101a0600d6001600160a01b0360028601541694856040850152600381015460608501526004810154608085015260ff600582015416151560a0850152600681015460c0850152600781015460e085015260088101546101008501526009810154610120850152600a810154610140850152600b810154610160850152600c81015461018085015201549101523314908115610a2c575b50611326565b611625565b005b9050331484610a1f565b5060035481111561094c565b346101e05760e03660031901126101e05760843567ffffffffffffffff81116101e057610a739036906004016111e1565b9060a43567ffffffffffffffff81116101e057610a949036906004016111e1565b60c4939193359167ffffffffffffffff83116101e0576001600160a01b036005610c89610c0e610c06610ca595610bfe610bf6610cad9c610bee610be6610ae08b9e36906004016111e1565b9f9096600435151580610cf4575b610af790611287565b6004355f525f602052610bc360405f20604051610b13816112d3565b815481528f600183015416908160208201526001600160a01b03600d6101a091600286015416948560408501526003810154606085015260048101546080850152600560ff9082015416151560a0850152600681015460c0850152600781015460e085015260088101546101008501526009810154610120850152600a810154610140850152600b810154610160850152600c81015461018085015201549101523314908115610cea5750611326565b6004355f525f602052610bdf60ff60405f209d8e015416611372565b36916113be565b60243561143d565b9a36916113be565b60443561143d565b9936916113be565b60643561143d565b96856006840155806007840155876008840155426004840155610c313087611903565b610c3b3387611903565b610c5e60026001850194610c52878754168a611903565b01968588541690611903565b610c683082611903565b610c723382611903565b610c7f8484541682611903565b8386541690611903565b610c933087611903565b610c9d3387611903565b541684611903565b541690611903565b610cb8600435611625565b60405142815233907fe5a25197abe12e218488657d150eeb0c95957409576b61c01295671b64b60f21602060043592a3005b905033145f610a1f565b506003546004351115610aee565b346101e05760203660031901126101e0576001600160a01b03610d2361120f565b165f52600260205260405f206040519081602082549182815201915f5260205f20905f5b818110610d5e5761081d8561081181870382611304565b8254845260209093019260019283019201610d47565b346101e05760203660031901126101e05760043580151580610f0d575b610d9a90611287565b805f525f602052610e6960405f20604051610db4816112d3565b815481526001600160a01b03600183015416908160208201526101a0600d6001600160a01b0360028601541694856040850152600381015460608501526004810154608085015260ff600582015416151560a0850152600681015460c0850152600781015460e085015260088101546101008501526009810154610120850152600a810154610140850152600b810154610160850152600c81015461018085015201549101523314908115610f035750611326565b805f525f60205260405f2060058101805460ff811615610ebe5760ff19169055600442910155604051904282527f7c8fb671ab2e56d28c913ea815774b1ce6e69be07fe5ffcd259fe0f5b3cc977460203393a3005b60405162461bcd60e51b815260206004820152601760248201527f4c6561736520697320616c726561647920636c6f7365640000000000000000006044820152606490fd5b9050331483610a1f565b50600354811115610d91565b346101e05760203660031901126101e05760043580151580611011575b610f3f90611287565b5f525f602052606060405f206101a060405191610f5b836112d3565b805483526001600160a01b0360018201541660208401526001600160a01b0360028201541660408401526003810154848401526004810154608084015260ff600582015416151560a0840152600681015460c0840152600781015460e084015260088101546101008401526009810154610120840152600a810154610140840152600b8101549283610160820152600d600c83015492836101808401520154928391015260405192835260208301526040820152f35b50600354811115610f36565b346101e05760603660031901126101e05760043560443567ffffffffffffffff81116101e057610be66001600160a01b03600261116d61115761106761119c9636906004016111e1565b9590881515806111d5575b61107b90611287565b885f525f60205261113b60405f20604051611095816112d3565b8154815288600183015416908160208201526101a0600d8b8b8601541694856040850152600381015460608501526004810154608085015260ff600582015416151560a0850152600681015460c0850152600781015460e085015260088101546101008501526009810154610120850152600a810154610140850152600b810154610160850152600c810154610180850152015491015233149081156111cb5750611326565b885f525f60205260405f2096610bdf60ff60058a015416611372565b80600a8601554260048601556009850154611571565b61117f600d8501918083553090611903565b61119181548460018701541690611903565b549201541690611903565b604051904282527fe5a25197abe12e218488657d150eeb0c95957409576b61c01295671b64b60f2160203393a3005b905033148b610a1f565b50600354891115611072565b9181601f840112156101e05782359167ffffffffffffffff83116101e057602083818601950101116101e057565b600435906001600160a01b03821682036101e057565b60206040818301928281528451809452019201905f5b8181106112485750505090565b825184526020938401939092019160010161123b565b8054821015611273575f5260205f2001905f90565b634e487b7160e01b5f52603260045260245ffd5b1561128e57565b60405162461bcd60e51b815260206004820152601060248201527f496e76616c6964206c65617365204944000000000000000000000000000000006044820152606490fd5b6101c0810190811067ffffffffffffffff8211176112f057604052565b634e487b7160e01b5f52604160045260245ffd5b90601f8019910116810190811067ffffffffffffffff8211176112f057604052565b1561132d57565b60405162461bcd60e51b815260206004820152601160248201527f4e6f742061207061727469636970616e740000000000000000000000000000006044820152606490fd5b1561137957565b60405162461bcd60e51b815260206004820152601360248201527f4c65617365206973206e6f7420616374697665000000000000000000000000006044820152606490fd5b92919267ffffffffffffffff82116112f057604051916113e8601f8201601f191660200184611304565b8294818452818301116101e0578281602093845f960137010152565b8054680100000000000000008110156112f0576114269160018201815561125e565b819291549060031b91821b915f19901b1916179055565b60209182916001600160a01b035f516020611b315f395f51905f525416905f60a460405180978196829563045fc19560e11b84526004840152336024840152608060448401528051918291826084860152018484015e818101830184905260046064830152601f01601f191681010301925af1908115611534575f9161153f575b506001600160a01b037f9e7b61f58c47dc699ac88507c4f5bb9f121c03808c5676a8078fe583e46497005416803b156101e057604051630f8e573b60e21b815260048101839052336024820152905f908290604490829084905af1801561153457611527575090565b5f61153191611304565b90565b6040513d5f823e3d90fd5b90506020813d602011611569575b8161155a60209383611304565b810103126101e057515f6114be565b3d915061154d565b908115611615575b8015611603575b60209060646001600160a01b035f516020611b315f395f51905f525416935f60405195869485936303056db360e31b8552600485015260248401528160448401525af1908115611534575f916115d4575090565b90506020813d6020116115fb575b816115ef60209383611304565b810103126101e0575190565b3d91506115e2565b50602061160e611a93565b9050611580565b905061161f611a93565b90611579565b805f525f60205260405f2060ff600582015416156118d057600781015461164a611a93565b81156118c0575b80156118ae575b60209060646001600160a01b035f516020611b315f395f51905f525416935f6040519586948593631d44e90160e21b8552600485015260248401528160448401525af18015611534575f9061187a575b6116c391506116b5611ae1565b6116bd611a93565b91611980565b90600b810191825560088101546116d8611a93565b811561186a575b8015611858575b60209060646001600160a01b035f516020611b315f395f51905f525416935f604051958694859363f77f3f1d60e01b8552600485015260248401528160448401525af1908115611534575f91611824575b506117f8926117ee6117536001600160a01b03936116b5611ae1565b91600c85019283556117d7611776600687015480600a8901556009880154611571565b93600d870194855561178a83543090611903565b6117b260028454946117a460018b01968a88541690611903565b549801978789541690611903565b6117bd308254611903565b6117cc81548785541690611903565b548587541690611903565b6117e2308454611903565b83835491541690611903565b5491541690611903565b7f843a7447013b0f8f527643ba891345e43ced88540713e7e584e160839f34d5606020604051428152a2565b90506020813d602011611850575b8161183f60209383611304565b810103126101e057516117f8611737565b3d9150611832565b506020611863611a93565b90506116e6565b9050611874611a93565b906116df565b506020813d6020116118a6575b8161189460209383611304565b810103126101e0576116c390516116a8565b3d9150611887565b5060206118b9611a93565b9050611658565b90506118ca611a93565b90611651565b5050565b466001036118e157600190565b4662aa36a7036118f15761271190565b617a6946146118fe575f90565b5f1990565b6001600160a01b037f9e7b61f58c47dc699ac88507c4f5bb9f121c03808c5676a8078fe583e4649700541691823b156101e057604051635ca4b5b160e11b815260048101929092526001600160a01b03166024820152905f908290604490829084905af18015611534576119745750565b5f61197e91611304565b565b91908215611a0e575b8015611a00575b81156119ea575b6064602092935f6001600160a01b035f516020611b315f395f51905f5254166040519687958694637702dcff60e01b86526004860152602485015260448401525af1908115611534575f916115d4575090565b6020915060646119f8611a93565b925050611997565b50611a09611a93565b611990565b5f516020611b315f395f51905f5254604051639cd07acb60e01b81525f60048201529193506001600160a01b0316816044815f6020948160248401525af1908115611534575f91611a61575b5091611989565b90506020813d602011611a8b575b81611a7c60209383611304565b810103126101e057515f611a5a565b3d9150611a6f565b5f516020611b315f395f51905f5254604051639cd07acb60e01b81525f6004820152906001600160a01b0316816044815f602094600460248401525af1908115611534575f916115d4575090565b5f516020611b315f395f51905f5254604051639cd07acb60e01b815260016004820152906001600160a01b0316816044815f602094600460248401525af1908115611534575f916115d457509056fe9e7b61f58c47dc699ac88507c4f5bb9f121c03808c5676a8078fe583e4649701a164736f6c634300081b000a",
  "devdoc": {
    "details": "All lease terms (usage count, days left, payment status) are encrypted and processed in ciphertext",
    "kind": "dev",
    "methods": {
      "checkLeaseStates(uint256)": {
        "params": {
          "leaseId": "The ID of the lease"
        }
      },
      "closeLease(uint256)": {
        "params": {
          "leaseId": "The ID of the lease"
        }
      },
      "createLease(address,bytes32,bytes32,bytes32,bytes32,bytes,bytes,bytes,bytes)": {
        "params": {
          "amountPaidProof": "Proof for encryptedAmountPaid",
          "daysLeftProof": "Proof for encryptedDaysLeft",
          "encryptedAmountPaid": "Encrypted amount paid",
          "encryptedDaysLeft": "Encrypted days left in lease",
          "encryptedPaymentStatus": "Encrypted payment status (0=unpaid, 1=paid)",
          "encryptedUsageCount": "Encrypted initial usage count",
          "lessee": "The address of the lessee (user/tenant)",
          "paymentStatusProof": "Proof for encryptedPaymentStatus",
          "usageCountProof": "Proof for encryptedUsageCount"
        },
        "returns": {
          "_0": "leaseId The ID of the created lease"
        }
      },
      "getEncryptedLeaseTerms(uint256)": {
        "params": {
          "leaseId": "The ID of the lease"
        },
        "returns": {
          "encryptedAmountPaid": "Handle for encrypted amount paid",
          "encryptedDaysLeft": "Handle for encrypted days left",
          "encryptedPaymentStatus": "Handle for encrypted payment status",
          "encryptedUsageCount": "Handle for encrypted usage count"
        }
      },
      "getEncryptedStates(uint256)": {
        "params": {
          "leaseId": "The ID of the lease"
        },
        "returns": {
          "encryptedExpired": "Handle for encrypted expired flag",
          "encryptedRefund": "Handle for encrypted refund amount",
          "encryptedViolation": "Handle for encrypted violation flag"
        }
      },
      "getLeaseCount()": {
        "returns": {
          "_0": "Total number of leases"
        }
      },
      "getLeaseInfo(uint256)": {
        "params": {
          "leaseId": "The ID of the lease"
        },
        "returns": {
          "createdAt": "Creation timestamp",
          "id": "Lease ID",
          "isActive": "Whether lease is active",
          "lessee": "Lessee address",
          "lessor": "Lessor address",
          "updatedAt": "Last update timestamp"
        }
      },
      "getLesseeLeases(address)": {
        "params": {
          "lessee": "The lessee address"
        },
        "returns": {
          "_0": "Array of lease IDs"
        }
      },
      "getLessorLeases(address)": {
        "params": {
          "lessor": "The lessor address"
        },
        "returns": {
          "_0": "Array of lease IDs"
        }
      },
      "updateLease(uint256,bytes32,bytes32,bytes32,bytes,bytes,bytes)": {
        "params": {
          "daysLeftProof": "Proof for encryptedDaysLeft",
          "encryptedDaysLeft": "New encrypted days left",
          "encryptedPaymentStatus": "New encrypted payment status",
          "encryptedUsageCount": "New encrypted usage count",
          "leaseId": "The ID of the lease",
          "paymentStatusProof": "Proof for encryptedPaymentStatus",
          "usageCountProof": "Proof for encryptedUsageCount"
        }
      },
      "updateUsedValue(uint256,bytes32,bytes)": {
        "params": {
          "encryptedUsedValue": "New encrypted used value",
          "leaseId": "The ID of the lease",
          "usedValueProof": "Proof for encryptedUsedValue"
        }
      }
    },
    "title": "Confidential Lease Executor",
    "version": 1
  },
  "userdoc": {
    "errors": {
      "ZamaProtocolUnsupported()": [
        {
          "notice": "Returned if the Zama protocol is not supported on the current chain"
        }
      ]
    },
    "kind": "user",
    "methods": {
      "checkLeaseStates(uint256)": {
        "notice": "Check encrypted states (expired, violation) and calculate refund"
      },
      "closeLease(uint256)": {
        "notice": "Close a lease contract"
      },
      "createLease(address,bytes32,bytes32,bytes32,bytes32,bytes,bytes,bytes,bytes)": {
        "notice": "Create a new encrypted lease contract"
      },
      "getEncryptedLeaseTerms(uint256)": {
        "notice": "Get encrypted lease terms (returns handles for decryption)"
      },
      "getEncryptedStates(uint256)": {
        "notice": "Get encrypted computed states (returns handles for decryption)"
      },
      "getLeaseCount()": {
        "notice": "Get total number of leases"
      },
      "getLeaseInfo(uint256)": {
        "notice": "Get lease basic information (non-encrypted)"
      },
      "getLesseeLeases(address)": {
        "notice": "Get all lease IDs for a lessee"
      },
      "getLessorLeases(address)": {
        "notice": "Get all lease IDs for a lessor"
      },
      "updateLease(uint256,bytes32,bytes32,bytes32,bytes,bytes,bytes)": {
        "notice": "Update encrypted lease terms"
      },
      "updateUsedValue(uint256,bytes32,bytes)": {
        "notice": "Update used value for refund calculation"
      }
    },
    "notice": "A privacy-preserving lease and subscription execution platform using FHEVM",
    "version": 1
  },
  "storageLayout": {
    "storage": [
      {
        "astId": 39226,
        "contract": "contracts/LeaseExecutor.sol:LeaseExecutor",
        "label": "leases",
        "offset": 0,
        "slot": "0",
        "type": "t_mapping(t_uint256,t_struct(Lease)39221_storage)"
      },
      {
        "astId": 39231,
        "contract": "contracts/LeaseExecutor.sol:LeaseExecutor",
        "label": "lesseeLeases",
        "offset": 0,
        "slot": "1",
        "type": "t_mapping(t_address,t_array(t_uint256)dyn_storage)"
      },
      {
        "astId": 39236,
        "contract": "contracts/LeaseExecutor.sol:LeaseExecutor",
        "label": "lessorLeases",
        "offset": 0,
        "slot": "2",
        "type": "t_mapping(t_address,t_array(t_uint256)dyn_storage)"
      },
      {
        "astId": 39238,
        "contract": "contracts/LeaseExecutor.sol:LeaseExecutor",
        "label": "leaseCounter",
        "offset": 0,
        "slot": "3",
        "type": "t_uint256"
      }
    ],
    "types": {
      "t_address": {
        "encoding": "inplace",
        "label": "address",
        "numberOfBytes": "20"
      },
      "t_array(t_uint256)dyn_storage": {
        "base": "t_uint256",
        "encoding": "dynamic_array",
        "label": "uint256[]",
        "numberOfBytes": "32"
      },
      "t_bool": {
        "encoding": "inplace",
        "label": "bool",
        "numberOfBytes": "1"
      },
      "t_mapping(t_address,t_array(t_uint256)dyn_storage)": {
        "encoding": "mapping",
        "key": "t_address",
        "label": "mapping(address => uint256[])",
        "numberOfBytes": "32",
        "value": "t_array(t_uint256)dyn_storage"
      },
      "t_mapping(t_uint256,t_struct(Lease)39221_storage)": {
        "encoding": "mapping",
        "key": "t_uint256",
        "label": "mapping(uint256 => struct LeaseExecutor.Lease)",
        "numberOfBytes": "32",
        "value": "t_struct(Lease)39221_storage"
      },
      "t_struct(Lease)39221_storage": {
        "encoding": "inplace",
        "label": "struct LeaseExecutor.Lease",
        "members": [
          {
            "astId": 39186,
            "contract": "contracts/LeaseExecutor.sol:LeaseExecutor",
            "label": "id",
            "offset": 0,
            "slot": "0",
            "type": "t_uint256"
          },
          {
            "astId": 39188,
            "contract": "contracts/LeaseExecutor.sol:LeaseExecutor",
            "label": "lessor",
            "offset": 0,
            "slot": "1",
            "type": "t_address"
          },
          {
            "astId": 39190,
            "contract": "contracts/LeaseExecutor.sol:LeaseExecutor",
            "label": "lessee",
            "offset": 0,
            "slot": "2",
            "type": "t_address"
          },
          {
            "astId": 39192,
            "contract": "contracts/LeaseExecutor.sol:LeaseExecutor",
            "label": "createdAt",
            "offset": 0,
            "slot": "3",
            "type": "t_uint256"
          },
          {
            "astId": 39194,
            "contract": "contracts/LeaseExecutor.sol:LeaseExecutor",
            "label": "updatedAt",
            "offset": 0,
            "slot": "4",
            "type": "t_uint256"
          },
          {
            "astId": 39196,
            "contract": "contracts/LeaseExecutor.sol:LeaseExecutor",
            "label": "isActive",
            "offset": 0,
            "slot": "5",
            "type": "t_bool"
          },
          {
            "astId": 39199,
            "contract": "contracts/LeaseExecutor.sol:LeaseExecutor",
            "label": "encryptedUsageCount",
            "offset": 0,
            "slot": "6",
            "type": "t_userDefinedValueType(euint32)40288"
          },
          {
            "astId": 39202,
            "contract": "contracts/LeaseExecutor.sol:LeaseExecutor",
            "label": "encryptedDaysLeft",
            "offset": 0,
            "slot": "7",
            "type": "t_userDefinedValueType(euint32)40288"
          },
          {
            "astId": 39205,
            "contract": "contracts/LeaseExecutor.sol:LeaseExecutor",
            "label": "encryptedPaymentStatus",
            "offset": 0,
            "slot": "8",
            "type": "t_userDefinedValueType(euint32)40288"
          },
          {
            "astId": 39208,
            "contract": "contracts/LeaseExecutor.sol:LeaseExecutor",
            "label": "encryptedAmountPaid",
            "offset": 0,
            "slot": "9",
            "type": "t_userDefinedValueType(euint32)40288"
          },
          {
            "astId": 39211,
            "contract": "contracts/LeaseExecutor.sol:LeaseExecutor",
            "label": "encryptedUsedValue",
            "offset": 0,
            "slot": "10",
            "type": "t_userDefinedValueType(euint32)40288"
          },
          {
            "astId": 39214,
            "contract": "contracts/LeaseExecutor.sol:LeaseExecutor",
            "label": "encryptedExpired",
            "offset": 0,
            "slot": "11",
            "type": "t_userDefinedValueType(euint32)40288"
          },
          {
            "astId": 39217,
            "contract": "contracts/LeaseExecutor.sol:LeaseExecutor",
            "label": "encryptedViolation",
            "offset": 0,
            "slot": "12",
            "type": "t_userDefinedValueType(euint32)40288"
          },
          {
            "astId": 39220,
            "contract": "contracts/LeaseExecutor.sol:LeaseExecutor",
            "label": "encryptedRefund",
            "offset": 0,
            "slot": "13",
            "type": "t_userDefinedValueType(euint32)40288"
          }
        ],
        "numberOfBytes": "448"
      },
      "t_uint256": {
        "encoding": "inplace",
        "label": "uint256",
        "numberOfBytes": "32"
      },
      "t_userDefinedValueType(euint32)40288": {
        "encoding": "inplace",
        "label": "euint32",
        "numberOfBytes": "32"
      }
    }
  }
}